{
  "address": "0x2297C3a5D5a79d2608B6B8a35831C46D7C8E3174",
  "abi": [
    {
      "inputs": [
        {
          "internalType": "bytes",
          "name": "",
          "type": "bytes"
        },
        {
          "internalType": "bytes",
          "name": "",
          "type": "bytes"
        },
        {
          "internalType": "bytes",
          "name": "",
          "type": "bytes"
        }
      ],
      "name": "verify",
      "outputs": [
        {
          "internalType": "bool",
          "name": "",
          "type": "bool"
        }
      ],
      "stateMutability": "view",
      "type": "function"
    }
  ],
  "transactionHash": "0x5fb37b285fb67fa2f5b0e178e5455826855edaf910b0b2f0c59afa577ab80d2e",
  "args": [],
  "solcInputHash": "189d66a3abb4fd07726a37f3a36ba4f8",
  "bytecode": "0x608060405234801561001057600080fd5b50610171806100206000396000f3fe608060405234801561001057600080fd5b506004361061002b5760003560e01c8063de8f50a114610030575b600080fd5b61004a61003e3660046100a5565b60019695505050505050565b604051901515815260200160405180910390f35b60008083601f84011261006f578182fd5b50813567ffffffffffffffff811115610086578182fd5b60208301915083602082850101111561009e57600080fd5b9250929050565b600080600080600080606087890312156100bd578182fd5b863567ffffffffffffffff808211156100d4578384fd5b6100e08a838b0161005e565b909850965060208901359150808211156100f8578384fd5b6101048a838b0161005e565b9096509450604089013591508082111561011c578384fd5b5061012989828a0161005e565b979a969950949750929593949250505056fea2646970667358221220701bc799da4e2d48a9ebb2506c702156f8e121aa3bc785a1273711602d7a0c8b64736f6c63430008040033",
  "devdoc": {
    "details": "Implements a dummy DNSSEC (signing) algorithm that approves all      signatures, for testing.",
    "kind": "dev",
    "methods": {},
    "version": 1
  },
  "userdoc": {
    "kind": "user",
    "methods": {},
    "version": 1
  },
  "storageLayout": {
    "storage": [],
    "types": null
  }
}